:020000040800F2
:10000000D004002001010008F31A00088B15000835
:10001000F11A00080F020008091F00080000000084
:10002000000000000000000000000000011C0008AB
:100030001102000800000000F51A0008031C000867
:100040001B0100081B0100081B0100081B01000820
:100050001B0100081B0100081B0100081B01000810
:100060001B0100081B0100081B0100081B01000800
:100070001B0100081B0100081B0100081B010008F0
:100080001B0100081B0100081B0100081B010008E0
:100090001B0100081B0100081B0100081B010008D0
:1000A0001B0100081B0100081B0100081B010008C0
:1000B0001B0100081B0100081B0100081B010008B0
:1000C0001B0100081B0100081B010008F91A0008A9
:1000D0001B010008FD1E00081B0100081B01000891
:1000E0001B0100081B0100081B010008DFF80CD0F1
:1000F00000F06CF800480047F5230008D004002009
:100100000648804706480047FEE7FEE7FEE7FEE7B1
:10011000FEE7FEE7FEE7FEE7FEE7FEE7651C0008F8
:10012000ED000008202A04DB203A21FA02F0002129
:10013000704721FA02F3D040C2F1200291400843F7
:1001400019467047D2B201E000F8012B491EFBD2DC
:1001500070470022F6E710B513460A4604461946D2
:10016000FFF7F0FF204610BD2DE9F05F05460020A7
:1001700092469B4688460646814640241BE0284618
:10018000414647462246FFF7CDFF53465A46C01A1E
:10019000914110D311461846224600F029F82D1A35
:1001A00067EB01084F4622460120002100F020F8AD
:1001B00017EB00094E41201EA4F10104DFDC484684
:1001C00031462A464346BDE8F09F0000064C074DE5
:1001D00006E0E06840F0010394E807009847103417
:1001E000AC42F6D3FFF786FF1C2500083C2500082B
:1001F000202A04DB203A00FA02F1002070479140E7
:10020000C2F1200320FA03F3194390407047FEE740
:10021000704772B6FEE710B590F82110002202294F
:1002200005D00421816380F82020012010BD0168E1
:100230000B6823F00E030B6001680B6823F00103C9
:100240000B6090F84030C46B012101FA03F3636046
:1002500080F8211080F82020104610BD10B590F8CD
:1002600021100024022903D00421816301243DE0F0
:1002700001680A6822F00E020A6001680A6822F02A
:1002800001020A601A4A0168914201D1012121E06C
:10029000174A1432914201D110211BE0144A28322E
:1002A000914201D1891515E0114A3C32914201D1A8
:1002B00089140FE00E4A5032914202D14FF480313E
:1002C00008E00B4A6432914202D14FF4801101E000
:1002D0004FF08071064A083A5160012180F82110E0
:1002E000002180F82010416B01B18847204610BDE5
:1002F0000800024070B5044600F004F90546601C91
:1003000002D004480078044400F0FCF8401BA042EE
:10031000FAD370BD180000202DE9F84FDFF8B8912E
:100320000024A9F1040B23460F2709F1040AABF1BD
:10033000040EC9E00125A5402A40AA427DD1674E9E
:10034000D1F804C0ACEB0608B44532D014DCBCF1E3
:10035000030F3AD009DCBCF1000F2AD0BCF1010F29
:100360001CD0BCF1020F31D11DE0BCF1110F17D030
:10037000BCF1120F2AD119E0B8F5881F19D006DC9C
:10038000B8F5803F15D0B8F5801F1FD111E0B8F542
:10039000001F0ED0B8F5041F18D10AE0CB6815E095
:1003A000CB681B1D12E0CB6808330FE0CB680C3321
:1003B0000CE08B682BB1012B4FF0080303D0456193
:1003C00004E0042302E0056100E00023FF2A01D8D5
:1003D000064601E000F104064FEA840501D9A5F1C3
:1003E0002005D6F8008007FA05FC28EA0C0803FA75
:1003F00005F548EA0508C6F800804D68ED0062D5AD
:10040000374DAE6946F00106AE61AD6924F00306D2
:1004100005F001050095334D06EB050CDCF808509E
:10042000A607360F07FA06F825EA0805DFF8B880B0
:10043000404503D14FF0000817E044E0DFF8AC80FE
:10044000404502D14FF001080FE0DFF8A48040459D
:1004500002D14FF0020808E0DFF89880404502D151
:100460004FF0030801E04FF0040808FA06F848EAE4
:100470000508CCF808804D68D9F80060ED024D46BB
:1004800001D5164300E096432E604D68DAF800600F
:10049000AD02554601D5164300E096432E604D68E7
:1004A000DBF80060AD035D4601D5164300E09643DE
:1004B0002E604D68DEF80060ED03754601D51643E9
:1004C00000E096432E60641C0D682A46E5407FF4E8
:1004D00031AFBDE8F88F00000804014000001110A2
:1004E000001002400000014000080140000C0140E3
:1004F00000100140001401400AB101617047090475
:10050000FBE70000014880687047000018000020E9
:100510000248816802781144816070471800002009
:10052000074810B5016841F010010160032000F098
:1005300075F80F2000F006F800F024F8002010BD38
:100540000020024070B50D4D04464FF47A712878B2
:10055000B1FBF0F00A490968B1FBF0F000F093FD3F
:1005600048B9102C07D200222146501E00F036F860
:1005700000206C6070BD012070BD000018000020DC
:10058000240000200C4808B5816941F00101816117
:10059000816901F001010091C16941F08051C1619F
:1005A000C06900F0805000900448416821F0E0618B
:1005B00041F00071416008BD0010024000000140A0
:1005C000002809DB00F01F02012191404009800052
:1005D00000F1E020C0F8001170470000F0B40E4BAD
:1005E0001B680C46C3F30223C3F10705042D00D991
:1005F0000425191D072901D2002300E0DB1E012676
:1006000006FA05F1491E214099409E40761E16408B
:100610003143F0BC01F08ABC0CED00E0064900F06B
:10062000070208684FF6FF03184040EA0220034A19
:1006300010430860704700000CED00E00000FA0570
:100640002DE9F0470F46050061D0434E306800F0B9
:100650000700B84209D2306820F007003843306004
:10066000306800F00700B84251D128683B4C810740
:1006700012D5400703D5606840F4E06060602878D8
:10068000000703D5606840F4605060606068A96846
:1006900020F0F000084360602878C00728D0686820
:1006A000012810D02168022810D0890700292EDAED
:1006B000616821F0030101436160FFF723FF804679
:1006C00041F288390DE021688903EFE78901EDE700
:1006D000FFF718FFA0EB0801494502D90320BDE848
:1006E000F0876068696800F00C00B0EB810FEFD113
:1006F000306800F00700B8420BD9306820F00700DE
:1007000038433060306800F00700B84201D0012063
:10071000E5E72878400705D56068E96820F4E060DF
:10072000084360602878000706D56068296920F4CE
:10073000605040EAC100606000F038F86168084A23
:10074000C1F30311515CC8400649086006480068BF
:10075000FFF7F8FE0020C2E7002002400010024030
:1007600002250008240000201C0000200448054940
:1007700000684968044AC1F30221515CC8407047CF
:1007800024000020001002401225000804480549FA
:1007900000684968044AC1F3C221515CC8407047EF
:1007A0002400002000100240122500080E4A516863
:1007B0000E4801F00C03042B11D0082B0FD10C486C
:1007C000C1F38343C903C05C0AD55168084AC1F329
:1007D0004041921E515C054A5043B0FBF1F0704716
:1007E00004494843704700000010024000127A009C
:1007F000F224000800093D002DE9F84F040070D0F4
:100800002078C04DC00749D06868C0F38100012836
:1008100007D06868C0F38100022809D16868C00366
:1008200006D52868800339D560680028E7D035E010
:100830006068B0F5803F0BD010B1B0F5A02F11D09B
:10084000286820F480302860286820F4802002E0A6
:10085000286840F480302860606890B1FFF752FE4D
:1008600006460AE0286840F480202860F0E700BFD0
:10087000FFF748FE801B642873D828688003F7D5EB
:100880000CE0FFF73FFE064605E000BFFFF73AFE2B
:10089000801B6428F0D828688003F7D420789A4E0B
:1008A00080074FF001094FF0000839D5686810F053
:1008B0000C0F07D06868C0F38100022809D168686E
:1008C000C00306D42868800714D52069012808D100
:1008D00010E02069B0B1C6F80090FFF713FE07469C
:1008E00005E00AE1FFF70EFEC01B0228C4D8286805
:1008F0008007F7D52868616920F0F80040EAC10058
:1009000028600DE0C6F80080FFF7FCFD074604E014
:10091000FFF7F8FDC01B022823D828688007F7D40A
:10092000207800072CD57948A169D9B1C0F800908A
:10093000FFF7E8FD074604E0FFF7E4FDC01B0228CF
:100940000FD8686A8007F7D571484FF4FA510068EC
:10095000B0FBF1F0009000BF0098411E0091FAD268
:100960000EE080E0C0F80080FFF7CCFD074604E011
:10097000FFF7C8FDC01B022875D8686A8007F7D446
:100980002078400760D5E8690027C00008D4E869EE
:1009900040F08050E861E869012700F08050009045
:1009A0005C480168C90513D40168834641F480712D
:1009B0000160FFF7A7FD824606E000BFFFF7A2FD3A
:1009C000A0EB0A0064284ED8DBF80000C005F5D57E
:1009D000E06801280AD008B1052813D0286A20F061
:1009E00001002862286A20F0040002E0286A40F032
:1009F00001002862E06841F2883B98B1FFF782FD70
:100A000082460BE0286A40F004002862EEE700BF4F
:100A1000FFF778FDA0EB0A0159455AD8286A8007EC
:100A2000F6D50CE0FFF76EFD824605E0FFF76AFDA4
:100A3000A0EB0A0159454CD8286A8007F6D41FB1AB
:100A4000E86920F08050E861E06988B36968C1F323
:100A50008101022944D00228C6F8608004D0FFF743
:100A600051FD044638E034E0FFF74CFD074604E052
:100A7000FFF748FDC01B02282BD828688001F7D457
:100A8000206AB0F5803F05D16868A16820F4003085
:100A900008436860D4E908010843696821F47411C7
:100AA00008436860C6F86090FFF72CFD044606E036
:100AB00025E000BFFFF726FD001B022809D82868A3
:100AC0008001F7D51BE000BFFFF71CFD001B0228CB
:100AD00002D90320BDE8F88F28688001F4D40EE025
:100AE0000128F7D06868226A00F48031914204D16D
:100AF000616A00F47010884201D00120EAE700200A
:100B0000E8E7000000100240000042428004424238
:100B100024000020007000407047000038B50446F3
:100B2000006842688168C9434B0606D5CB0704D1EB
:100B3000D3435B0601D4216C05E08B0708D4D34373
:100B40001B0605D4616C01B02046BDE83040084763
:100B50008B0601D54B0646D4D3439B0643D44B06A4
:100B60000AD494F85130032B3ED0636D43F0040354
:100B70006365C36883680093890609D4616D41F099
:100B80000101616581680091016821F04001016007
:100B9000606D002827D02068416821F0E0014160A5
:100BA000012084F85100900722D02068416821F08C
:100BB00003014160104DE06C40B14563E06CFFF70C
:100BC0004DFB18B1606D40F040006065A06C0028DE
:100BD00009D04563A06CFFF741FB002803D0606D8E
:100BE00040F04000606538BDC1688068009038BD45
:100BF0002046FFF791FF38BD051B000870B50400C3
:100C000009D0606A002540B125616561A56294F84C
:100C1000510040B10CE0012070BD6068B0F5827FEA
:100C2000F4D0E561F2E784F85050204600F040F837
:100C3000022084F851002068016821F04001016021
:100C4000A088218900F4827001F404410843A1893D
:100C500001F400610843217C01F002010843217D79
:100C600001F001010843218B01F400710843217F49
:100C700001F03801084394F8201001F08001084386
:100C8000218D01F40051084321680860A069042106
:100C900001EA1040216848602068C16921F40061C0
:100CA000C1616565012084F85100002070BD00001D
:100CB00030B585B000240094019402940394006838
:100CC000184988422BD11848816941F480518161CB
:100CD000816901F480510491816941F004018161CD
:100CE0008069124D00F004000490A02000900220C2
:100CF00001900320039069462846FFF70DFB402032
:100D0000CDE90004694628460294FFF705FB00225E
:100D100011462320FFF762FC2320FFF751FC05B0AA
:100D200030BD0000003001400010024000080140CA
:100D30002DE9F84F984616468A460446FFF7E2FB2F
:100D4000814694F8510001281ED1BAF1000F73D0EA
:100D5000002E71D094F85000012815D0012784F896
:100D60005070032084F8510000256565C4F830A058
:100D7000A686E686A563A587E58765642564A068E1
:100D8000B0F5004F03D00CE00220BDE8F88F2068DA
:100D9000016821F0400101602068016841F4804150
:100DA000016020680168490603D4016841F04001F0
:100DB0000160E068B0F5006F606803D048B3012EB1
:100DC00027D047E008B1012E1FD1206B2168008891
:100DD000C86006E020688168890709D5216B098809
:100DE000C160206B801C2063E08E401EE0860CE01A
:100DF000FFF788FBA0EB0901414503D3B8F1FF3FA2
:100E000003D035E0B8F1000F32D0E08E0028E1D1F8
:100E100023E0206B21680078087306E02068816871
:100E200089070AD5216B09780173206B401C206368
:100E3000E08E401EE0860DE02BE0FFF763FBA0EBA9
:100E40000901414503D3B8F1FF3F03D010E0B8F1E9
:100E5000000F0DD0E08E0028E0D14A4641462046E2
:100E600000F058FE08B120206065A06830B109E0AC
:100E700084F8517084F85050032086E72068C168D8
:100E80008068009084F8517004F8505F6068002812
:100E9000F3D0012079E72DE9FF4F81B01D4693463D
:100EA00004464FF001090E9EFFF72CFB074694F80D
:100EB00051006168012806D0B1F5827F3CD1A1685C
:100EC000C9BB042838D10298002871D0BBF1000FAB
:100ED000FBD0002DF9D094F8500001282CD04FF011
:100EE000010A84F850A094F85100042802D005208B
:100EF00084F851004FF00008C4F85480C4F838B0AA
:100F0000E587A58702992163E586A586C4F8408018
:100F1000C4F8448020680168490603D4016841F0A0
:100F200040010160E068B0F5006F606808D0F0B380
:100F3000012D49D081E0FFE7022005B0BDE8F08F28
:100F400008B1012D39D1206B21680088C860206B61
:100F5000801C2063E08E401EE0862EE020688168C1
:100F600089070FD5E18E69B1B9F1010F0AD1216B63
:100F70000988C160206B801C2063E08E401EE086E3
:100F80004FF0000920688168C9070CD0E18F51B18A
:100F9000C068A16B0880A06B801CA063E08F401E1E
:100FA000E0874FF00109FFF7ADFAC01B01E00BE04D
:100FB00067E0B04201D3701C50D1E08E0028CDD143
:100FC000E08F0028CAD13EE0206B216800780873CA
:100FD000206B401C2063E08E401EE0862DE02068E0
:100FE000816889070FD5E18E69B1B9F1010F0AD186
:100FF000216B09780173206B401C2063E08E401E3A
:10100000E0864FF0000920688168C9070CD0E18FA5
:1010100051B1C068A16B0870A06B401CA063E08F49
:10102000401EE0874FF00109FFF76CFAC01BB04289
:1010300002D3701C01D011E086B1E08E0028CED121
:10104000E08F0028CBD13A463146204600F062FDC1
:1010500050B12020606584F8508012E084F851A0DF
:1010600084F85080032068E7A06818B92068C16838
:101070008068009084F851A084F85080606D00284A
:10108000F1D0012059E710B5401EB0F1807F01D3A7
:10109000012010BD4FF0E02460610F21601700F0C7
:1010A00045FF0020A06107202061002010BD70478F
:1010B00070470000F8B5016804460868CA684B69C3
:1010C00010F00F0F4FF0000559D003F0010602F4A5
:1010D0009077374365D0C10705D0D10503D5616C42
:1010E00041F001016164410705D5D90703D0616C66
:1010F00041F002016164810705D5D90703D0616C15
:1011000041F004016164010707D502F02001314379
:1011100003D0616C41F008016164616C00293AD030
:10112000800604D5900602D5204600F0CBFD20684D
:101130004069616CC0F38010090700D460B3204699
:1011400000F099FD20684069400621D520681430E0
:1011500050E8001F21F0400140E80012002AF5D1BC
:10116000E06BA8B16D494163E06BFFF777F80028A9
:1011700011D0E06B416B01B0BDE8F0400847830639
:101180000FD593060DD52046BDE8F84000F09ABD76
:101190002046FFF78DFFF8BD2046FFF789FF656405
:1011A000F8BD266B2023012E7CD1C6067AD5D60643
:1011B00078D508684868009048694FF002064006F4
:1011C00040D5E16B086840680004000CE8D0A28DAF
:1011D0008242E5D9E085886920282DD020680C302E
:1011E00050E8001F21F4807140E80012002AF5D178
:1011F0002068143050E8001F21F0010140E800127F
:10120000002AF5D12068143050E8001F21F0400179
:1012100040E80012002AF5D184F8423025632068A6
:101220000C3050E8001F21F0100140E80012002AA5
:10123000F5D1E06BFEF7EFFF6663A08DE18D401AFC
:1012400081B22AE0A08DE18D401A81B2E08D0028A4
:10125000A6D00029A4D022680C3252E8000F20F456
:10126000907042E80007002FF5D12068143050E854
:10127000002F22F0010240E80027002FF5D184F86A
:101280004230256320680C3050E8002F22F0100215
:1012900040E80023002BF5D166632046FFF707FFE7
:1012A000F8BDFFE705062BD5150629D594F84100B2
:1012B0002128F5D1A068B0F5805F01D12069B0B1D7
:1012C000206A411C2162216800784860E08C401E41
:1012D0000004000CE084E3D12068C16821F08001A3
:1012E000C1602068C16841F04001C160D8E7206A50
:1012F0000088C0F308004860206A801C2062E5E78F
:101300004006CDD55006CBD5CA68204622F0400213
:10131000CA6084F8413000F037F9C1E7671C000863
:1013200070B5040004D094F84100002510B106E027
:10133000012070BD84F84050204600F023F824209E
:1013400084F841002068C16821F40051C160204642
:1013500000F024FD2068016921F4904101612068BA
:10136000416921F02A0141612068C16841F40051BE
:10137000C1606564202084F8410084F84200656300
:10138000002070BD30B585B0002400940194029413
:1013900003940068184988422CD11848816941F4A7
:1013A00080418161816901F480410491816941F04A
:1013B000040181618069124D00F0040004904FF433
:1013C0000070009002200190032003906946284697
:1013D000FEF7A2FF2815CDE90004694628460294CD
:1013E000FEF79AFF002211462520FFF7F7F8252087
:1013F000FFF7E6F805B030BD0038014000100240AC
:101400000008014090F84230202B01D002207047A4
:1014100021B11AB10023036300F01CBD0120704705
:101420007CB500682949884233D1294E55200025D2
:1014300034788DF80000EE208DF80400082C03D9D4
:10144000A4F1100063280CD8FFF75CF8214908606C
:1014500021480570A4F11000632802D80F3CB47035
:101460000CE0012202231D481D49092C2AD2DFE885
:1014700004F005111315181C1E2023000A23012255
:101480006946184800F030F8012211491548FFF765
:10149000B9FF7CBD0270F1E70370EFE70570002132
:1014A00001E005700121002009E00A70E6E70B70F9
:1014B000E4E70D70002101E00D700121012000F032
:1014C0002DFADBE70A23012201A9DAE700380140FF
:1014D0000C00002008000020010000200200002075
:1014E00003000020840000202DE9F843044690F812
:1014F0004100984616460D46202802D00220BDE83D
:10150000F88385B17EB100206064212084F8410019
:10151000FEF7F8FFA6848146E684A0682027B0F590
:10152000805F02D003E00120E9E7206910B12E4678
:1015300000250EE000260CE08021204600F0A5FCEE
:10154000A8B9C6B116F8010B21684860E08C401EAE
:10155000E084E08C4B464FF00002CDF8008000287C
:10156000EAD14FF04001204600F08FFC40B184F8F2
:1015700041700320C3E735F8020BC0F30800E3E72E
:1015800084F841700020BAE77047FEE700EB800066
:10159000400000E000BF401EFCD270473EB5002175
:1015A000019140F040008DF80400FF208DF8050007
:1015B000124D02918DF80600642401221021284664
:1015C000FEF79AFF002100BF491CC9B20A29FAD3CD
:1015D000032302AA01A90A480094FFF75CFC00213A
:1015E00000BF491CC9B20A29FAD30022102128469B
:1015F000FEF782FFBDF809003EBD00000008014073
:101600002C00002010B50B4C002208212046FEF7CC
:1016100073FF00214FF4FA6000BF491C8142FBD3E5
:10162000012208212046FEF767FFBDE81040022096
:10163000FEF760BE0008014070B5242500F090F967
:1016400030A000F063FC00242146284600F09EF9FB
:101650000A20FEF74FFE2846FFF7A0FF020015D034
:1016600031A3214632A000F051FC41F2340421465E
:10167000284600F08BF90A20FEF73CFE2846FFF7CB
:101680008DFF0246A04203D134A302E033A3E8E772
:1016900025A3214633A000F039FC4AF6CD042146AB
:1016A000284600F073F90A20FEF724FE2846FFF7CB
:1016B00075FF0246A04201D135A300E036A32146C2
:1016C00037A000F023FC4FF6FF442146284600F0E7
:1016D0005DF90A20FEF70EFE2846FFF75FFF02467F
:1016E000A04201D12AA300E02BA3214636A000F09E
:1016F0000DFC0021284600F049F9BDE870403CA0EF
:1017000000F004BC0D0A3D3D3D204D5334313932CB
:101710003920535049207465737420737461727456
:10172000203D3D3D0D0A0000E5A4B1E8B4A5000050
:10173000E6B58BE8AF95313A20E58699E585A53089
:1017400078253034582C20E8AFBBE58F96307825CB
:101750003034582025730D0A00000000E68890E51B
:101760008A9F0000E6B58BE8AF95323A20E586996E
:10177000E585A53078253034582C20E8AFBBE58FBF
:10178000963078253034582025730D0A000000006B
:1017900053756363657373004661696C00000000F4
:1017A0005465737420333A20577269746520307819
:1017B000253034582C20526561642030782530342F
:1017C000582025730D0A00005465737420343A20A4
:1017D0005772697465203078253034582C20526552
:1017E0006164203078253034582025730D0A0000BC
:1017F0003D3D3D204D53343139323920535049203D
:101800007465737420656E64203D3D3D0D0A0D0ABC
:101810000000000070B50C46054600F0A1F845B187
:10182000012D18D12920FFF7B9FE6CB140F4806179
:101830000CE02420FFF7B2FE14B140F4806101E017
:1018400020F48061242002E020F480612920BDE89A
:10185000704000F09BB870BD70B50446FFF7D2FE33
:1018600000F07EF84FF400710B2000F08FF842F684
:101870000F01202000F08AF80F21222000F086F8C6
:1018800042F220052946232000F080F84FF48060C2
:1018900040EA0434A1B2242000F078F80F21272078
:1018A00000F074F82946282000F070F8A1B2292031
:1018B00000F06CF800F054F8002070BD70B51446CC
:1018C0000E46054600F04CF8642C00D96424C4F19F
:1018D00064004FF4B07148436421B0FBF1F4A4B14B
:1018E0004FF4B070844200D904464FF4886040EA57
:1018F000062165B1012D10D1292000F047F8A1B2D1
:101900002A20BDE8704000F041B80124EDE7242012
:1019100000F03CF8A1B22520F3E770BD70B50C468D
:10192000054600F01DF845B1012D18D12920FFF71B
:1019300035FE6CB140F400710CE02420FFF72EFE60
:1019400014B140F4007101E000F47D41242002E074
:1019500000F47D412920BDE8704000F017B870BD4B
:1019600010B5094C012204212046FEF7C5FD3220A6
:10197000FFF70CFE002204212046FEF7BDFDBDE866
:1019800010403220FFF702BE0008014038B500F0D9
:10199000BF008DF800008DF80110080A114D8DF878
:1019A00002006424012210212846FEF7A5FD002133
:1019B00000BF491CC9B21E29FAD323460322694637
:1019C0000948FFF7B5F90A20FFF7E0FD002100BF45
:1019D000491CC9B21E29FAD3002210212846FEF75D
:1019E0008BFD38BD000801402C00002070B586B08A
:1019F000002000900190029003901A48816941F004
:101A000010018161816901F010010491816941F047
:101A100020018161816901F020010491816941F017
:101A2000040181618069104E00F0040004900022DE
:101A30001C213046FEF760FD1420012402258DE8AC
:101A40003100694630460395FEF766FC0820CDE973
:101A5000000469463046CDE90245FEF75DFC06B05C
:101A600070BD00000010024000080140114810B590
:101A70000F4901604FF482714160002102228160B0
:101A8000C0E9031201224261520282611822C2613E
:101A90008022C0E9082181620A21C162FFF7AEF805
:101AA000002803D0BDE81040FEF7B3BB10BD000016
:101AB000003001402C0000200C4810B50A4901609C
:101AC0004FF4E1314160002181600C22C160C0E926
:101AD00004128161C161FFF723FC002803D0BDE837
:101AE0001040FEF796BB10BD003801408400002076
:101AF000FEE7FEE7704700000148FFF70FB800005F
:101B00002C00002010B5406A0021C187C186FFF774
:101B100003F810BDF8B515460E460B460092044674
:101B20000122022100F010F840B933460022802142
:101B30002046009500F008F8002804D0606D40F0C1
:101B4000200060650320F8BD2DE9F8431E4691464C
:101B500088460446089DFEF7D5FC401B351AFEF763
:101B6000D1FC074625480068C0F3CB30684338E015
:101B7000701C37D0FEF7C6FCC01BA84203D215B1BB
:101B8000009860B32CE02068416821F0E0014160DA
:101B90006068B0F5827F0BD1A068B0F5004F02D02D
:101BA000B0F5806F04D12068016821F04001016028
:101BB000A06AB0F5005F09D12068016821F40051E6
:101BC00001602068016841F400510160012084F83F
:101BD0005100002084F850000320BDE8F883002560
:101BE000401E00902068816838EA010004D000217E
:101BF0004945BDD10020F0E70121F9E7240000208C
:101C00007047FEF785BC30B58FB028216846FEF7D7
:101C1000A0FA14210AA8FEF79CFA01210804CDE9D4
:101C200000100024029402250491CDE907504FF4DE
:101C3000E01009906846FEF7DFFD08B172B6FEE7D6
:101C40000F20CDE90A054FF48060CDE90C40022158
:101C50000AA80E94FEF7F4FC002801D072B6FEE745
:101C60000FB030BD704710B5406A0021C185C184F6
:101C7000FFF71EFA10BD01680C3151E8002F22F465
:101C8000907241E80023002BF5D10168143151E82E
:101C9000002F22F0010241E80023002BF5D1016B57
:101CA000012909D101680C3151E8002F22F01002FE
:101CB00041E80023002BF5D1202180F842100021BB
:101CC0000163704708B590F84210222901D0022024
:101CD00008BD82684FF480539A4201D1016921B155
:101CE000816A9A421BD04AB10AE00268816A52684E
:101CF000C2F308020A80816A891C08E0026972B195
:101D00000268526802F07F020A70816A491C81628F
:101D1000C18D491E0904090CC18503D01BE002686E
:101D20005268F1E70168CA6822F02002CA600168BF
:101D3000CA6822F48072CA6001684A6922F001020E
:101D40004A61202180F8421000214163026B012A80
:101D500003D0FFF765FB002008BD016301680C316B
:101D600051E8002F22F0100241E80023002BF5D1AA
:101D700001680A68D20602D50A6849680091818D17
:101D8000FFF795F9E7E70000012202490248FFF753
:101D900039BB00000C0000208400002070B5044610
:101DA00000680169E26821F4405111430161216931
:101DB000A0680843616908432168CA6841F20C635E
:101DC0009A430243CA6020684169A26921F44071C4
:101DD000114341611E492068884202D1FEF7D6FCBA
:101DE00001E0FEF7C3FC00EBC00101EB00126068EC
:101DF00064218000B2FBF0F3B3FBF1F36FF018063F
:101E00007343B2FBF0F5B2FBF0F605EB830532232A
:101E100003EB0515B5FBF1F5B6FBF1F605F0F005A2
:101E200005EB0615B2FBF0F6B2FBF0F0B0FBF1F0FB
:101E30006FF01802504306EB800003EB0010B0FB7C
:101E4000F1F0216800F00F002844886070BD0000A8
:101E50000038014081628285C285002141642221CF
:101E600080F84210016921B10168CA6842F48072A9
:101E7000CA6001684A6942F001024A610068C168AB
:101E800041F02001C160002070472DE9F8439846D9
:101E900017460D460446089E24E0701C22D0FEF72B
:101EA00031FBA0EB0800B0421AD8CEB12068C1685F
:101EB000490717D5802D15D0402D13D00168C9438F
:101EC00009070FD401680025406800902046FFF7FD
:101ED000D2FE0820606484F840500120BDE8F883F9
:101EE0000320FBE72068006835EA000004D00020EA
:101EF000B842D2D00020F1E70120F9E70148FFF70E
:101F0000D9B8000084000020FEE700000FB4054BA4
:101F100010B503A9044A029800F028F810BC5DF837
:101F200014FB0000D1230008280000200907090E37
:101F3000002804DB00F1E02080F80014704700F076
:101F40000F0000F1E02080F8141D704702E008C87F
:101F5000121F08C1002AFAD170477047002001E023
:101F600001C1121F002AFBD1704700002DE9FF4F6D
:101F70008DB00F460546002606E025280BD0DDE98A
:101F80000F1290476D1C761C28780028F5D111B0EF
:101F90003046BDE8F08F0024A246A1460122EC495C
:101FA00000E0044315F8013F203B02FA03F0084229
:101FB000F7D128782A2810D06FF02F022878A0F1C6
:101FC0003001092914D80AEB8A0102EB410144F0DF
:101FD000020400EB010A6D1CF0E701CF5FEA000A82
:101FE00003D544F40054CAF1000A44F002046D1C05
:101FF00028782E2817D115F8010F44F004042A2858
:102000000ED06FF02F022878A0F1300109290AD8EC
:1020100009EB890102EB410100EB01096D1CF2E7BC
:1020200057F8049B6D1C28786C280FD006DC4C28D0
:1020300017D068280DD06A2814D104E0742810D075
:102040007A280FD10DE044F400140AE044F480141F
:1020500001E044F440146978814202D104F580140F
:102060006D1C6D1C2A786E2A1FD00CDC632A31D0BF
:1020700004DC002A8BD0582A11D1A3E0642A68D04E
:10208000692A0CD165E0732A2ED004DC6F2A73D044
:10209000702A04D19BE0752A6FD0782A6ED0104642
:1020A000DDE90F129047761C50E1C4F3025002287C
:1020B00006D0032809D0042801CF09D0066045E1E5
:1020C00001CFF117C0E9006140E101CF06803DE199
:1020D00006703BE117F8040B8DF8000000208DF826
:1020E0000100EB46012003E057F804BB4FF0FF303E
:1020F00061074FF0000102D40DE008F101018846AC
:1021000049450FDA8045F8DB1BF808100029F4D1A7
:1021100008E008F1010188468142FADB1BF808104B
:102120000029F6D1DDE90F23AAEB080081462146FC
:1021300000F036F9304400EB080604E0DDE90F1248
:102140001BF8010B9047B8F10108F7D22146484629
:10215000F7E00A21C4F302534FF0000B0891022B61
:1021600004D001CFC117032B09D00AE0FF1D27F0CF
:102170000707F7E8020108E032E01FE020E000B2C4
:10218000C117042B01D140B2C117031E71F1000326
:1021900007DA4FF0000CD0EB0C006CEB01012D23A3
:1021A00002E0230504D52B238DF82430012303E01E
:1021B000E30701D02023F7E7984658E00A2110E012
:1021C00010210EE010204FF0000B08900CE01021C1
:1021D0004FF0000B44F004044FF00809089103E0AD
:1021E00008214FF0000B0891C4F30253022B04D0D6
:1021F00001CF0021032B06D006E0FF1D27F00707C3
:10220000F7E8020103E080B2042B00D1C0B24FF026
:10221000000823072BD5702A07D0DDF820C08CF0EA
:10222000100C5CEA0B0C05D00EE040238DF8243036
:10223000012308E050EA010306D030238DF8243052
:102240008DF8252002239846DDF820C08CF0080C7C
:102250005CEA0B0C0BD150EA010301D1630706D5F0
:1022600030238DF824304FF00108A9F10109582AD4
:1022700004D038A20B9208AA0A920BE03AA2F9E71E
:102280005B46089AFDF770FF0B9B9B5C0A9A521EF7
:102290000A92137050EA0102F2D10A98ADEB0000E5
:1022A00000F1200B600702D524F4803401E04FF0E8
:1022B0000109D94502DDA9EB0B0000E0002000EB8D
:1022C0000B0141440890AAEB010AE00306D4DDE9C2
:1022D0000F232146504600F063F806444FF00009F2
:1022E00008E009A911F80900DDE90F12904709F18A
:1022F0000109761CC145F4DBE0030CD5DDE90F23B1
:102300002146504600F04CF8064404E0DDE90F1287
:1023100030209047761C0899481E08900029F5DC6B
:1023200008E00A980A990078491C0A91DDE90F1221
:102330009047761CBBF10001ABF1010BF1DC2146AB
:102340005046DDE90F2300F019F806446D1C1BE62A
:10235000092801003031323334353637383961627B
:10236000636465660000000030313233343536373F
:102370003839414243444546000000002DE9F04110
:10238000044600251E461746880404D405E0394655
:102390002020B0476D1C641EF9D52846BDE8F081A9
:1023A0002DE9F041044600251E469046C80301D59C
:1023B000302700E02027880404D505E04146384650
:1023C000B0476D1C641EF9D52846BDE8F0810000B9
:1023D00038B504468DF8000064230122694604489C
:1023E000FFF782F810B14FF0FF3038BD204638BDFE
:1023F0008400002008B5FEF793F8FFF704FCFFF710
:10240000F5FAFFF733FBFFF757FB2EA0FFF77EFD32
:102410000A20FDF76FFF2F4C2078FFF71DFAFFF71A
:102420000BF9FFF7B1FC2CA0FFF770FD0121002094
:10243000FFF7F0F901210846FFF7ECF90A20FDF754
:1024400059FF4FF47A7500BFFEF75CF8A168401A97
:10245000A84216D96078A0B9012060700020A07051
:10246000E0700121FFF75AFA01210846FFF756FAFA
:1024700099208DF800000A23012269461B48FFF7C6
:1024800033F860780028DFD1A078012803D0A07845
:10249000022803D007E02279012101E022790021FE
:1024A0000020FFF70BFAE078012808D0E078022836
:1024B000CAD1227900210120FFF700FAC4E722796E
:1024C0000121F8E753544D333220496E69742E2EA2
:1024D0002E2E2E000000002053544D333220496E22
:1024E0006974E5AE8CE6889000000000840000204E
:1024F000010202030405060708090A0B0C0D0E0F62
:102500001010000000000000000001020304060794
:102510000809000000000102030400003C25000837
:10252000000000202C0000004C1F00086825000857
:102530002C000020A40400005C1F00080000000024
:102540000100000000000000000001000000000089
:10255000000000000100000010000000000000006A
:0825600000127A0000000000E7
:04000005080000ED02
:00000001FF
